{
  "address": "0x5FbDB2315678afecb367f032d93F642f64180aa3",
  "abi": [
    {
      "inputs": [
        {
          "internalType": "string",
          "name": "_greeting",
          "type": "string"
        }
      ],
      "stateMutability": "nonpayable",
      "type": "constructor"
    },
    {
      "inputs": [
        {
          "internalType": "uint256",
          "name": "_id",
          "type": "uint256"
        }
      ],
      "name": "addGreeting",
      "outputs": [],
      "stateMutability": "nonpayable",
      "type": "function"
    },
    {
      "inputs": [
        {
          "internalType": "uint256",
          "name": "_id",
          "type": "uint256"
        },
        {
          "internalType": "string",
          "name": "_text",
          "type": "string"
        }
      ],
      "name": "addGreeting",
      "outputs": [],
      "stateMutability": "nonpayable",
      "type": "function"
    },
    {
      "inputs": [],
      "name": "greet",
      "outputs": [
        {
          "internalType": "string",
          "name": "",
          "type": "string"
        }
      ],
      "stateMutability": "view",
      "type": "function"
    },
    {
      "inputs": [
        {
          "internalType": "uint256",
          "name": "",
          "type": "uint256"
        }
      ],
      "name": "greetings",
      "outputs": [
        {
          "internalType": "uint8",
          "name": "id",
          "type": "uint8"
        },
        {
          "internalType": "string",
          "name": "text",
          "type": "string"
        }
      ],
      "stateMutability": "view",
      "type": "function"
    },
    {
      "inputs": [
        {
          "internalType": "string",
          "name": "_greeting",
          "type": "string"
        }
      ],
      "name": "setGreeting",
      "outputs": [],
      "stateMutability": "nonpayable",
      "type": "function"
    },
    {
      "inputs": [
        {
          "components": [
            {
              "internalType": "uint8",
              "name": "id",
              "type": "uint8"
            },
            {
              "internalType": "string",
              "name": "text",
              "type": "string"
            }
          ],
          "internalType": "struct Greeter.Greeting[]",
          "name": "_greetings",
          "type": "tuple[]"
        }
      ],
      "name": "setGreetings",
      "outputs": [],
      "stateMutability": "nonpayable",
      "type": "function"
    }
  ],
  "transactionHash": "0xa61af53b4df6eb498ce3de511a06bdd5fbf5d2538beeecf2c856fd0f2f394592",
  "args": [
    "Hello, world!"
  ],
  "solcInputHash": "a3d17c4bfe35bfb87003449ca2ceaec7",
  "bytecode": "0x60806040523480156200001157600080fd5b5060405162000e0a38038062000e0a833981016040819052620000349162000167565b80516200004990600190602084019062000051565b5050620002aa565b8280546200005f906200021e565b90600052602060002090601f016020900481019282620000835760008555620000ce565b82601f106200009e57805160ff1916838001178555620000ce565b82800160010185558215620000ce579182015b82811115620000ce578251825591602001919060010190620000b1565b50620000dc929150620000e0565b5090565b5b80821115620000dc5760008155600101620000e1565b60006200010e6200010884620001be565b6200019f565b9050828152602081018484840111156200012757600080fd5b62000134848285620001eb565b509392505050565b600082601f8301126200014d578081fd5b81516200015f848260208601620000f7565b949350505050565b60006020828403121562000179578081fd5b818101516001600160401b0381111562000191578182fd5b6200015f848285016200013c565b6000620001ab60405190565b9050620001b982826200024f565b919050565b60006001600160401b03821115620001da57620001da62000294565b601f19601f83011660200192915050565b60005b8381101562000208578181015183820152602001620001ee565b8381111562000218576000848401525b50505050565b6002810460018216806200023357607f821691505b602082108114156200024957620002496200027e565b50919050565b601f19601f83011681016001600160401b038111828210171562000277576200027762000294565b6040525050565b634e487b7160e01b600052602260045260246000fd5b634e487b7160e01b600052604160045260246000fd5b610b5080620002ba6000396000f3fe608060405234801561001057600080fd5b50600436106100725760003560e01c8063e3ac600311610050578063e3ac6003146100bd578063f87c9ea9146100d0578063fee350a3146100f157600080fd5b8063a413686214610077578063cf447c601461008c578063cfae32171461009f575b600080fd5b61008a610085366004610630565b610104565b005b61008a61009a3660046105ee565b61011b565b6100a761019e565b6040516100b4919061070e565b60405180910390f35b61008a6100cb366004610665565b610230565b6100e36100de366004610665565b610300565b6040516100b492919061071f565b61008a6100ff366004610689565b6103bc565b8051610117906001906020840190610457565b5050565b60005b61ffff811682111561019957600083838361ffff1681811061015057634e487b7160e01b600052603260045260246000fd5b905060200281019061016291906107a3565b8154600181018355600092835260209092209091600202016101848282610ab3565b5050808061019190610a2a565b91505061011e565b505050565b6060600180546101ad906109d0565b80601f01602080910402602001604051908101604052809291908181526020018280546101d9906109d0565b80156102265780601f106101fb57610100808354040283529160200191610226565b820191906000526020600020905b81548152906001019060200180831161020957829003601f168201915b5050505050905090565b60408051808201825260ff83811682528251808401909352600483527f74657374000000000000000000000000000000000000000000000000000000006020808501919091528083019384526000805460018101825590805283517f290decd9548b62a8d60345a988386fc84ba6bc95484008f6362f93160ef3e5636002909202918201805460ff19169190941617835593518051939492936102fa937f290decd9548b62a8d60345a988386fc84ba6bc95484008f6362f93160ef3e56401929190910190610457565b50505050565b6000818154811061031057600080fd5b60009182526020909120600290910201805460018201805460ff909216935090610339906109d0565b80601f0160208091040260200160405190810160405280929190818152602001828054610365906109d0565b80156103b25780601f10610387576101008083540402835291602001916103b2565b820191906000526020600020905b81548152906001019060200180831161039557829003601f168201915b5050505050905082565b600060405180604001604052808560ff16815260200184848080601f01602080910402602001604051908101604052809392919081815260200183838082843760009201829052509390945250508354600180820186559482526020918290208451600290920201805460ff191660ff9092169190911781558382015180519495919461044f9450918501920190610457565b505050505050565b828054610463906109d0565b90600052602060002090601f01602090048101928261048557600085556104cb565b82601f1061049e57805160ff19168380011785556104cb565b828001600101855582156104cb579182015b828111156104cb5782518255916020019190600101906104b0565b506104d79291506104db565b5090565b5b808211156104d757600081556001016104dc565b60006105036104fe846107fd565b6107e1565b90508281526020810184848401111561051b57600080fd5b610526848285610957565b509392505050565b60008083601f84011261053f578081fd5b50813567ffffffffffffffff811115610556578182fd5b60208301915083602082028301111561056e57600080fd5b9250929050565b60008083601f840112610586578182fd5b50813567ffffffffffffffff81111561059d578182fd5b60208301915083600182028301111561056e57600080fd5b600082601f8301126105c5578081fd5b81356105d58482602086016104f0565b949350505050565b80356105e881610b01565b92915050565b60008060208385031215610600578182fd5b8183013567ffffffffffffffff811115610618578283fd5b6106248582860161052e565b92509250509250929050565b600060208284031215610641578081fd5b8082013567ffffffffffffffff811115610659578182fd5b6105d5848285016105b5565b600060208284031215610676578081fd5b610682838284016105dd565b9392505050565b60008060006040848603121561069d578081fd5b6106a9858286016105dd565b9250602084013567ffffffffffffffff8111156106c4578182fd5b6106d086828701610575565b92509250509250925092565b60006106e6825190565b8084526020840193506106fd818560208601610963565b601f01601f19169290920192915050565b6020808252810161068281846106dc565b60ff8316815260406020820181905281016105d581846106dc565b60008083357fffffffffffffffffffffffffffffffffffffffffffffffffffffffffffffffe13685900301811261076f578283fd5b8301915050803567ffffffffffffffff81111561078b57600080fd5b60208201915060018102360382131561056e57600080fd5b600082357fffffffffffffffffffffffffffffffffffffffffffffffffffffffffffffffc1368490030181126107d7578182fd5b9190910192915050565b60006107ec60405190565b90506107f882826109fd565b919050565b600067ffffffffffffffff82111561081757610817610a78565b601f19601f83011660200192915050565b818110156101175761083b600082610a9b565b600101610828565b6000816105e8565b600060ff82166105e8565b8267ffffffffffffffff81111561086f5761086f610a78565b61087982546109d0565b600080601f8411601f8411171561089557506000848152602090205b601f8311156108c7576020601f850104810160208510156108b35750805b6108c56020601f860104830182610828565b505b601f8411600181146108fb576000935084156108e4578287013593505b600019600886021c1984166002860217865561094d565b601f198516935081835b858110156109255788850135825560209485019460019092019101610905565b508585101561094257600019601f87166008021c19848901351681555b506001600286020186555b5050505050505050565b82818337506000910152565b60005b8381101561097e578181015183820152602001610966565b838111156102fa5750506000910152565b80828061099b81610a8e565b90506109a78184610abd565b50505060018101602083016109bc818561073a565b91506109c9828285610aa8565b5050505050565b6002810460018216806109e457607f821691505b602082108114156109f7576109f7610a62565b50919050565b601f19601f830116810181811067ffffffffffffffff82111715610a2357610a23610a78565b6040525050565b61ffff81169050600061ffff821415610a4557610a45610a4c565b5060010190565b634e487b7160e01b600052601160045260246000fd5b634e487b7160e01b600052602260045260246000fd5b634e487b7160e01b600052604160045260246000fd5b600081356105e881610b11565b6000610199818484610ad8565b610199838383610856565b610117828261098f565b610ac68261084b565b815460ff191660ff8216178255505050565b610ae183610843565b81546008840282811b60001990911b908116901990911617825550505050565b805b8114610b0e57600080fd5b50565b60ff8116610b0356fea26469706673582212206e0471d9296e497ed52d43202e60cd1fb5ebfe9740c928d752aa89088ed6b2c564736f6c63430008040033",
  "devdoc": {
    "kind": "dev",
    "methods": {},
    "version": 1
  },
  "userdoc": {
    "kind": "user",
    "methods": {},
    "version": 1
  },
  "storageLayout": {
    "storage": [
      {
        "astId": 6923,
        "contract": "contracts/Greeter.sol:Greeter",
        "label": "greetings",
        "offset": 0,
        "slot": "0",
        "type": "t_array(t_struct(Greeting)6919_storage)dyn_storage"
      },
      {
        "astId": 6925,
        "contract": "contracts/Greeter.sol:Greeter",
        "label": "greeting",
        "offset": 0,
        "slot": "1",
        "type": "t_string_storage"
      }
    ],
    "types": {
      "t_array(t_struct(Greeting)6919_storage)dyn_storage": {
        "base": "t_struct(Greeting)6919_storage",
        "encoding": "dynamic_array",
        "label": "struct Greeter.Greeting[]",
        "numberOfBytes": "32"
      },
      "t_string_storage": {
        "encoding": "bytes",
        "label": "string",
        "numberOfBytes": "32"
      },
      "t_struct(Greeting)6919_storage": {
        "encoding": "inplace",
        "label": "struct Greeter.Greeting",
        "members": [
          {
            "astId": 6916,
            "contract": "contracts/Greeter.sol:Greeter",
            "label": "id",
            "offset": 0,
            "slot": "0",
            "type": "t_uint8"
          },
          {
            "astId": 6918,
            "contract": "contracts/Greeter.sol:Greeter",
            "label": "text",
            "offset": 0,
            "slot": "1",
            "type": "t_string_storage"
          }
        ],
        "numberOfBytes": "64"
      },
      "t_uint8": {
        "encoding": "inplace",
        "label": "uint8",
        "numberOfBytes": "1"
      }
    }
  }
}