{
  "address": "0x9fE46736679d2D9a65F0992F2272dE9f3c7fa6e0",
  "abi": [
    {
      "inputs": [],
      "name": "content",
      "outputs": [
        {
          "internalType": "bytes",
          "name": "",
          "type": "bytes"
        }
      ],
      "stateMutability": "view",
      "type": "function"
    },
    {
      "inputs": [
        {
          "internalType": "bytes",
          "name": "_content",
          "type": "bytes"
        }
      ],
      "name": "setContent",
      "outputs": [],
      "stateMutability": "nonpayable",
      "type": "function"
    }
  ],
  "transactionHash": "0xff9cfb69d7263c4a49625646a3c21c361347e34b5f1733b28ec6cee2d1635bb4",
  "args": [],
  "solcInputHash": "a3d17c4bfe35bfb87003449ca2ceaec7",
  "bytecode": "0x608060405234801561001057600080fd5b50610565806100206000396000f3fe608060405234801561001057600080fd5b50600436106100365760003560e01c80631a6a91f61461003b5780638a4d5a6714610050575b600080fd5b61004e610049366004610301565b61006e565b005b61005861012d565b60405161006591906103dc565b60405180910390f35b6040517fe5c5e9a300000000000000000000000000000000000000000000000000000000815273e7f1725E7734CE288F8367e1Bb143E90bb3F05129063e5c5e9a3906100c090859085906004016103ca565b60006040518083038186803b1580156100d857600080fd5b505af41580156100ec573d6000803e3d6000fd5b505050506040513d6000823e601f3d908101601f191682016040526101149190810190610343565b8051610128916000916020909101906101bb565b505050565b6000805461013a90610477565b80601f016020809104026020016040519081016040528092919081815260200182805461016690610477565b80156101b35780601f10610188576101008083540402835291602001916101b3565b820191906000526020600020905b81548152906001019060200180831161019657829003601f168201915b505050505081565b8280546101c790610477565b90600052602060002090601f0160209004810192826101e9576000855561022f565b82601f1061020257805160ff191683800117855561022f565b8280016001018555821561022f579182015b8281111561022f578251825591602001919060010190610214565b5061023b92915061023f565b5090565b5b8082111561023b5760008155600101610240565b600061026761026284610410565b6103f4565b90508281526020810184848401111561027f57600080fd5b61028a848285610447565b509392505050565b60008083601f8401126102a3578081fd5b50813567ffffffffffffffff8111156102ba578182fd5b6020830191508360018202830111156102d257600080fd5b9250929050565b600082601f8301126102e9578081fd5b81516102f9848260208601610254565b949350505050565b60008060208385031215610313578182fd5b8183013567ffffffffffffffff81111561032b578283fd5b61033785828601610292565b92509250509250929050565b600060208284031215610354578081fd5b8082015167ffffffffffffffff81111561036c578182fd5b6102f9848285016102d9565b81835260208301925061038c82848361043b565b50601f01601f19160190565b60006103a2825190565b8084526020840193506103b9818560208601610447565b601f01601f19169290920192915050565b602080825281016102f9818486610378565b602080825281016103ed8184610398565b9392505050565b60006103ff60405190565b905061040b82826104a4565b919050565b600067ffffffffffffffff82111561042a5761042a610500565b601f19601f83011660200192915050565b82818337506000910152565b60005b8381101561046257818101518382015260200161044a565b83811115610471576000848401525b50505050565b60028104600182168061048b57607f821691505b6020821081141561049e5761049e6104d1565b50919050565b601f19601f830116810181811067ffffffffffffffff821117156104ca576104ca610500565b6040525050565b7f4e487b7100000000000000000000000000000000000000000000000000000000600052602260045260246000fd5b7f4e487b7100000000000000000000000000000000000000000000000000000000600052604160045260246000fdfea26469706673582212201857f8d7e6f6afea9ddf3edd8c4024de3cf24bc7e0b2ed87772d78027d13e52b64736f6c63430008040033",
  "deployedBytecode": "0x608060405234801561001057600080fd5b50600436106100365760003560e01c80631a6a91f61461003b5780638a4d5a6714610050575b600080fd5b61004e610049366004610301565b61006e565b005b61005861012d565b60405161006591906103dc565b60405180910390f35b6040517fe5c5e9a300000000000000000000000000000000000000000000000000000000815273__$fb14f255e85662cadacc97e201cd42467c$__9063e5c5e9a3906100c090859085906004016103ca565b60006040518083038186803b1580156100d857600080fd5b505af41580156100ec573d6000803e3d6000fd5b505050506040513d6000823e601f3d908101601f191682016040526101149190810190610343565b8051610128916000916020909101906101bb565b505050565b6000805461013a90610477565b80601f016020809104026020016040519081016040528092919081815260200182805461016690610477565b80156101b35780601f10610188576101008083540402835291602001916101b3565b820191906000526020600020905b81548152906001019060200180831161019657829003601f168201915b505050505081565b8280546101c790610477565b90600052602060002090601f0160209004810192826101e9576000855561022f565b82601f1061020257805160ff191683800117855561022f565b8280016001018555821561022f579182015b8281111561022f578251825591602001919060010190610214565b5061023b92915061023f565b5090565b5b8082111561023b5760008155600101610240565b600061026761026284610410565b6103f4565b90508281526020810184848401111561027f57600080fd5b61028a848285610447565b509392505050565b60008083601f8401126102a3578081fd5b50813567ffffffffffffffff8111156102ba578182fd5b6020830191508360018202830111156102d257600080fd5b9250929050565b600082601f8301126102e9578081fd5b81516102f9848260208601610254565b949350505050565b60008060208385031215610313578182fd5b8183013567ffffffffffffffff81111561032b578283fd5b61033785828601610292565b92509250509250929050565b600060208284031215610354578081fd5b8082015167ffffffffffffffff81111561036c578182fd5b6102f9848285016102d9565b81835260208301925061038c82848361043b565b50601f01601f19160190565b60006103a2825190565b8084526020840193506103b9818560208601610447565b601f01601f19169290920192915050565b602080825281016102f9818486610378565b602080825281016103ed8184610398565b9392505050565b60006103ff60405190565b905061040b82826104a4565b919050565b600067ffffffffffffffff82111561042a5761042a610500565b601f19601f83011660200192915050565b82818337506000910152565b60005b8381101561046257818101518382015260200161044a565b83811115610471576000848401525b50505050565b60028104600182168061048b57607f821691505b6020821081141561049e5761049e6104d1565b50919050565b601f19601f830116810181811067ffffffffffffffff821117156104ca576104ca610500565b6040525050565b7f4e487b7100000000000000000000000000000000000000000000000000000000600052602260045260246000fd5b7f4e487b7100000000000000000000000000000000000000000000000000000000600052604160045260246000fdfea26469706673582212201857f8d7e6f6afea9ddf3edd8c4024de3cf24bc7e0b2ed87772d78027d13e52b64736f6c63430008040033",
  "libraries": {
    "RLE": "0xe7f1725E7734CE288F8367e1Bb143E90bb3F0512"
  },
  "devdoc": {
    "kind": "dev",
    "methods": {},
    "version": 1
  },
  "userdoc": {
    "kind": "user",
    "methods": {},
    "version": 1
  },
  "storageLayout": {
    "storage": [
      {
        "astId": 7041,
        "contract": "contracts/LightRunners.sol:LightRunners",
        "label": "content",
        "offset": 0,
        "slot": "0",
        "type": "t_bytes_storage"
      }
    ],
    "types": {
      "t_bytes_storage": {
        "encoding": "bytes",
        "label": "bytes",
        "numberOfBytes": "32"
      }
    }
  }
}