{
  "address": "0xe7f1725E7734CE288F8367e1Bb143E90bb3F0512",
  "abi": [
    {
      "inputs": [
        {
          "internalType": "bytes",
          "name": "_rleBytes",
          "type": "bytes"
        }
      ],
      "name": "decode",
      "outputs": [
        {
          "internalType": "bytes",
          "name": "",
          "type": "bytes"
        }
      ],
      "stateMutability": "pure",
      "type": "function"
    }
  ],
  "transactionHash": "0x42077a01ef6b8187978890544059c3e581ff3fff6319c04a364b91f0e3cd27d8",
  "args": [],
  "solcInputHash": "a3d17c4bfe35bfb87003449ca2ceaec7",
  "bytecode": "0x61033f61003a600b82828239805160001a60731461002d57634e487b7160e01b600052600060045260246000fd5b30600052607381538281f3fe73000000000000000000000000000000000000000030146080604052600436106100355760003560e01c8063e5c5e9a31461003a575b600080fd5b61004d610048366004610185565b610063565b60405161005a9190610273565b60405180910390f35b60608060005b8381101561013657600085858381811061009357634e487b7160e01b600052603260045260246000fd5b919091013560f81c91506000905086866100ae85600161028b565b8181106100cb57634e487b7160e01b600052603260045260246000fd5b9050013560f81c60f81b905060005b8260ff168160ff16101561011f5784826040516020016100fb929190610239565b60405160208183030381529060405294508080610117906102d3565b9150506100da565b50505060028161012f919061028b565b9050610069565b509392505050565b60008083601f84011261014f578182fd5b50813567ffffffffffffffff811115610166578182fd5b60208301915083600182028301111561017e57600080fd5b9250929050565b60008060208385031215610197578182fd5b8183013567ffffffffffffffff8111156101af578283fd5b6101bb8582860161013e565b92509250509250929050565b60006101d1825190565b8084526020840193506101e88185602086016102a3565b601f017fffffffffffffffffffffffffffffffffffffffffffffffffffffffffffffffe0169290920192915050565b6000610221825190565b61022f8185602086016102a3565b9290920192915050565b6102438184610217565b7fff0000000000000000000000000000000000000000000000000000000000000083168152905060010192915050565b6020808252810161028481846101c7565b9392505050565b6000821982111561029e5761029e6102f3565b500190565b60005b838110156102be5781810151838201526020016102a6565b838111156102cd576000848401525b50505050565b60ff81169050600060ff8214156102ec576102ec6102f3565b5060010190565b634e487b7160e01b600052601160045260246000fdfea264697066735822122074e350e97426388788adb25be588fb9a9e9fceb1c4285e5c1f0bfd077b98d31564736f6c63430008040033",
  "devdoc": {
    "kind": "dev",
    "methods": {},
    "version": 1
  },
  "userdoc": {
    "kind": "user",
    "methods": {},
    "version": 1
  },
  "storageLayout": {
    "storage": [],
    "types": null
  }
}